:02000004C0DE5C
:1000000010B5044662B603F021F9002C08BF02F0D7
:100010001AFF002010BDF0B581B048B30178E02987
:100020000CD1417804290ED0032915D1817871B9FA
:10003000C07860B900F0D8F801B0F0BD0020002110
:100040004FF4DC420CE0817809B9C07860B100203F
:10005000002146F6862203E0002000214FF4DA4218
:1000600002F06AFE01B0F0BD00F0A8F801B0F0BDEA
:1000700074467D4644F20860C0F20000784403F004
:1000800003F944F22276C0F200067E44304603F0C3
:10009000FBF844F27F60C0F20000784403F0F4F80B
:1000A00040F2BC40C0F2000009EB00073846314680
:1000B000092204F03FF9384604F098F90A22391869
:1000C0003A540020487044F2B566C0F200067E44FF
:1000D0003046202102F0FAFF3046202102F0DAFFFC
:1000E0002046294602F0BCFF2046294602F096FF32
:1000F00003F022F82DE9F04D88B002F000FE00F088
:100100008CF802F005FE00284DD444F2135AC0F2D8
:10011000000A44F29348C0F2000844F2705B40F2D7
:100120000006C0F2000B0446C0F2000605ADFA441A
:10013000F844FB4411E000BF09EB06025846214693
:1001400003F0A2F80020002146F6872202F0F4FD19
:1001500002F0DEFD044600282AD409EB06012846F9
:10016000224602F0A1FE0028E6D09DF817009DF877
:1001700018409DF814109DF815209DF81630079F23
:10018000CDE9000450460294039703F07DF8284619
:10019000FFF741FFB0F1FF3FDADC44F2FA38C0F27A
:1001A0000008F84404E044F21548C0F20008F8449E
:1001B000404603F069F808B0BDE8F08D80B584B022
:1001C00044F2D650C0F20000784403F0EDFE0190F6
:1001D0000B2002900020039001A801214FF410424F
:1001E00002F0AAFD04B080BD80B584B002200121D8
:1001F0008DF8010003208DF803100DF101018DF839
:100200000200CDE901100020039001A801214FF464
:10021000104202F091FD04B080BD80B584B040F280
:10022000130CC0F2000C44F28C51C0F2000144F2F5
:100230007E52C0F20002002079447A44CDE90021C8
:10024000029044F24A50C0F2000044F23C31C0F245
:100250000001FC44784479440022FF23CDF80CC00F
:1002600001F017FD04B080BDFF2003F013FFB0B50F
:100270009EB0229D002818BF002903D12C7820466B
:100280001EB0B0BD002AF9D0002BF7D0002D1CBF46
:10029000002129700178B02910D14178A72910D008
:1002A000062915D0012910D1817871B9C07860B9BB
:1002B0001046194600F02CF80446E0E746F685148F
:1002C000DDE7817809B9C078C8B14FF4DC44D6E7DE
:1002D00000241C6083780279411D03AD1846002379
:1002E0000094019503F08DFE0446002828464FF047
:1002F0006C0108BF4FF4104404F034F8BFE700204D
:10030000002D18601CBF012028704FF41044B6E780
:10031000F0B581B0044608680D4600210328296025
:100320002AD301262E6026702A68C71E11190131B2
:10033000BA1A012003F0A2FE29684A1C2A60605400
:10034000296808440119286001313A1A022003F093
:1003500095FE29684A1C2A60605429680844411C9B
:100360002960265403F080FE29684A1C2A606054E4
:100370004FF4104001B0F0BD46F6851001B0F0BD5D
:10038000002908BF7047B0B582B005465F208DF8E0
:100390000500080A0C468DF806008DF807100DF1CF
:1003A000050101200322002303F0A2FE01202946BB
:1003B0002246002303F09CFE02B0BDE8B040704727
:1003C00080B5C0782028084618BF80BD012002F003
:1003D000E0FE02F0EDFE02F0D2FE002080BD70B51E
:1003E00082B040F21115C0F2000509EB050040F2A1
:1003F000111100220123012603F086FE044603F0BA
:1004000010FEAA280AD103F017FE1526AA284FF0DD
:10041000550008BF012608BF692000E06920012CB3
:100420008DF806008DF8076015DB19F805002F28F8
:1004300013DCA0F11001132914D8012202FA01F1F2
:100440000122C0F20F0211420CD00DF1060102226E
:10045000002303F04DFE02B070BD3028F5D04028D7
:10046000F3D0F8E701380228F5D240F29430C0F218
:10047000000009EB0501621E4844013103F05AFFF8
:10048000002002F022FC02B070BDB0B540F22C2476
:10049000C0F200040A4619F804100346084619463B
:1004A0000023002503F024FE40F22421C0F20001C5
:1004B00049448D7140F2B441C0F2000109F8045082
:1004C00009F80150B0BD2DE9F04184B040F2111798
:1004D00006460020C0F200078DF80F0009EB070068
:1004E00040F211110022012303F00EFE0446012800
:1004F000C0F2068119F8070000252F285DDCA0F165
:10050000100116296CD8012202FA01F10122C0F271
:100510007F02114264D040F22C25C0F2000509F898
:10052000050003F07EFDAA2803D103F085FDAA286B
:1005300070D109EB07004078B02832D140F2111099
:10054000611E40F200040290C0F2000409EB0700B3
:100550000DF10F0609EB0402013002AB0096FFF724
:1005600086FEB0F5104F1CBF00210291029B020ACB
:1005700009EB0401CF18CA549A1C19F805300292ED
:10058000787092B218460023002403F0B1FD9DF864
:100590000F1009F80540012900F0D28000EAE0754B
:1005A000AFE019F80560212E47DD2F2E4DDC222EFD
:1005B00058D0232E5CD107205DE03028ABD04028F6
:1005C000A9D0422840F09D8040F20000C0F2000017
:1005D00009EB070148440131224603F0ABFE8FE0EE
:1005E0000138022880F08D8040F29435013CC0F241
:1005F00000054F4409EB0500791C224603F09AFEE2
:1006000078781A2827D109EB05002146FFF7D8FE94
:10061000054676E040F20000C0F20000552109F8DE
:10062000001009EB0001152219F805004A7002229A
:10063000002303F05DFD054663E0102E14D0202E4C
:1006400018D0212E14D1052015E0302E0ED0402ECA
:100650000ED103200FE0002E62D00020002502F012
:1006600034FB4EE0042006E0062004E0022002E015
:10067000002000E0012040F22428C0F2000809EB2D
:100680000801887140F20000651EC0F2000009EB0D
:100690000701484401312A4603F04CFE232E0BDDAE
:1006A000242E18D0252E21D0402E2AD140F2B4403D
:1006B000C0F20000022108E0202E26D0232E20D1F7
:1006C00040F2B440C0F20000012109F800100A20F5
:1006D00009F8080015E040F2B440C0F20000012122
:1006E00009F800100B2009F808000AE040F2B440B5
:1006F000C0F20000012109F800100C2009F80800E0
:100700002546284604B0BDE8F08140F2B440C0F26E
:100710000000012109F80010082009F80800F0E79E
:1007200019F80500152898D8012101FA00F045F2C2
:100730002001C0F2200108423FF48FAF0025E0E71E
:10074000FF2003F0A7FC10B58AB040F22C20C0F2C5
:100750000000002109F800101520C0F202000790E7
:10076000012401A8CDE90111CDE90311CDE905115D
:10077000ADF820408DF82210ADF8241003F095FC60
:1007800040F22220C0F2000009F800400AB010BD7B
:1007900070B504460078A0B140F23021C0F20001EB
:1007A00009EB0102907B00284FF0000012D0494471
:1007B0008A7E002A14BF012201F118000646104665
:1007C0000AE040F23020C0F2000009EB00060020F1
:1007D000B07001E002F10C0600284FF0000018BFD5
:1007E00070BD3546B060306045F8040F606803F0B6
:1007F000DBFB2178B060317040F21B03C0F20003D4
:10080000002904F108027B4428464FF0070102D07A
:1008100002F0C9FC02E002F0C1FC0020707030461A
:1008200070BD000080B590F83E2040F2302C0020D2
:10083000C0F2000C04E000BF0C3810F1240310D00B
:1008400009EB0C0303445B7E9A42F5D109EB0C03E0
:1008500003449B7E002BEFD009EB0C0210441830B0
:1008600000E00020002808BF80BD8268002A18BF71
:10087000904780BD70B5002859D0044648780D4691
:10088000C00727D06178022002F0A1FC0321C177C4
:10089000297843F66D42C0F2000243F68743C0F266
:1008A00000037A447B440029014608BF134601F83F
:1008B000213F1A0ECA701A0C8A70190A80F8221089
:1008C0000021A278636841720421817543F82200F7
:1008D000501CA07068780026800726D56178022019
:1008E00002F075FC0321C177297843F62342C0F258
:1008F000000243F60543C0F200037A447B4400291A
:10090000014608BF134601F8213F1A0ECA701A0C9F
:100910008A70190A80F82210A2786368062146724C
:10092000817543F82200501CA070304670BD4FF016
:10093000FF3070BD2DE9F04D88B00028059000F023
:100940002181DDF814B00E469BF8011001201746F6
:100950001C4602F03CFC05460320002F08BF012086
:100960009BF8011085F8200002F036FC294601F8BA
:10097000220F020ECA70020C000A4FF0720A8A702F
:1009800085F8230085F804A09BF801104FF00008BB
:100990000420049785F805804FF0040B02F017FC43
:1009A00007460320F877304603F0FEFA0146384642
:1009B00000F8261F0A0EC2700A0C8270080A87F817
:1009C0002700052087F820000820722201230394C5
:1009D000002C08BF0A2087F8220087F8058087F8D6
:1009E00004A002F00DFC064605281ED33E4616F86C
:1009F000261F7278B378F47841EA022143EA042290
:100A000016F8040C41EA02410DF11E0206F801BC81
:100A10000092722204230124019402F000FCBDF82C
:100A20001E003071000A7071042697F8220002F04F
:100A3000D8FB8246C07997F8241006FB00F84FEAED
:100A40001820F87141F0010087F8068087F824002B
:100A5000294611F8222F0220B87548788B78C9787A
:100A6000049C42EA002043EA012140EA0140002CB4
:100A7000076000F0A181059841780398022840F0B2
:100A8000868005204FF0050A02F0A1FB00260746EC
:100A900080F821600320F87787F82000012087F88C
:100AA00022002046ADF81A60ADF8186003F07CFA19
:100AB0000146384600F8251F0A0EC2700A0C8270E3
:100AC000080A87F82600082087F823000E20B8714E
:100AD0000820FE7187F816A002F09CFB6628C0F083
:100AE000C480BB461BF8251F01249BF801209BF8FE
:100AF00002309BF8036041EA022143EA06221BF818
:100B0000020C41EA024106AA00920DF11A03662284
:100B1000019402F070FBBDF818009BF802100C3035
:100B20000BF8210C000A0BF8200C9BF800009BF836
:100B300003209BF8013041EA022140EA032040EA09
:100B4000014140F25420BDF81A60C0F2000009EBE8
:100B5000000A132E28BF13265046324603F0EAFB44
:100B600000200AF80600504603F01EFA010E8BF82A
:100B700000008BF80310010C000A8BF802108BF8B0
:100B8000010077E04FF0FF3008B0BDE8F08D0420A1
:100B900002F01DFB4FF0030B074680F81FB0204604
:100BA00003F002FA0146384600F8261F0A0EC2700A
:100BB0000A0C827097F82420080A87F8270042F070
:100BC000010087F824000A2087F8220072200026FE
:100BD00038710A20722201237E7102F011FB042871
:100BE0001FD33C4614F826CF4FF0010E6278A3784D
:100BF000E1784CEA022243EA012114F8040C42EAAB
:100C0000014107AA04F801BC009272220323CDF827
:100C100004E002F004FBBDF81C002071000A6071C2
:100C200003209AF80710039A002A08BF83460BFB9B
:100C300001F0B871000AF871052087F82000022041
:100C400078760BFB0180294611F8222F00F102086B
:100C500048788B78C97842EA002043EA012140EACB
:100C60000140BE75BE764760A6E00C303871000AC0
:100C7000082478717C76284610F8221F00264278D6
:100C80008378C07841EA0221BDF8182043EA0020A9
:100C900041EA0040002ABE76476000F08B8005984C
:100CA0004FF0050B4178052002F091FA074680F8D5
:100CB00021600320F87787F8200004984FF0010A9C
:100CC00087F822A003F070F9BDF81A10FE710144F4
:100CD000384600F8251F0A0EC2700A0C8270080AF6
:100CE00087F82600082087F823000E20B8710F200F
:100CF0007876082087F816B0BE7602F08BFA662860
:100D000047D33E4616F8251F7278B378F47841EA47
:100D1000022143EA042216F8020C41EA024106AA23
:100D200000920DF11A036622CDF804A002F063FAD6
:100D3000BDF81800B1780C3006F8210C000A06F84E
:100D4000200C3078F278737841EA022140EA0320DF
:100D500040EA014140F26820BDF81AB0C0F200003C
:100D600009EB000ABBF1130F28BF4FF0130B5046DD
:100D70005A4603F0DFFA00200AF80B00504603F051
:100D800013F9010E3070F170010C000AB17070702F
:100D900003E00C303871000A7871284610F8221FE1
:100DA00042788378C07841EA022143EA002041EA90
:100DB0000040876008F12C08059B85F80680052116
:100DC000A97599785A684FEA1820E871002042F80E
:100DD00021500131E877997008B0BDE8F08D00002E
:100DE0002DE9F04D00285AD0054608790E46002816
:100DF0004FF0000458D04FF005084FF0030A4FF0B1
:100E0000000B04E030790BF1010B83454BD2707974
:100E100000210228A0F1020288BF01215A454FF0AB
:100E20000002C8BF01221142ECD102305845E9D37B
:100E30006978042002F0CBF9316807465FFA8BF03D
:100E40008847394601F8260F020ECA70020C000AC4
:100E500087F82700722038710C208A70B871707979
:100E600087F82080BBEB00004FEA00114FEA10101A
:100E7000B8764FF00A007C71FC7187F8214087F842
:100E80001680797687F81FA008BF0820A9786A68BD
:100E900087F82200481C42F82170A870B2E74FF092
:100EA000FF30BDE8F08D00242046BDE8F08D00281D
:100EB00004BF4FF0FF3070472DE9F04D86B08A46F1
:100EC00041780646012002F082F9717880460320BD
:100ED000032702F081F9414601F8220F020ECA7081
:100EE000020C000A8A7088F82300DAF808004FF034
:100EF000000B88F820B0B8B371780220022402F009
:100F000066F90546DAF80800EF7703F04DF8294650
:100F100001F8210F020ECA70020C8A70010A85F8CE
:100F20002210294601F812BF85F813B081F802B0EB
:100F3000424681F803B08178C07812F8223F85F8E4
:100F400009B0AC7541EA002B51789778D47812F843
:100F5000020C43EA012147EA042341EA034141F834
:100F60002050013002F8020CDAF80000002800F0EE
:100F7000BD8071780420CDF810B002F028F9074642
:100F8000DAF800000321F97703F00EF8014638463D
:100F900000F8261F0A0EC2700A0C8270080A87F831
:100FA00027009AF80D20052087F820000820002A45
:100FB0004FF0720208BF0A203A7197F824204FF0D0
:100FC000000B42F0010287F824207222012387F8E7
:100FD000220087F805B002F013F90546052821D351
:100FE0003D4615F8261F04206A78AB78EC7841EA74
:100FF000022143EA042205F8010C15F8040C41EA29
:1010000002410DF1160200927222042301244FF0D6
:10101000000B019402F003F9BDF816002871000AD4
:101020006871042597F8220002F0DBF8C07987F890
:1010300021B06843B871DAF80820010AF9715AB38F
:10104000414611F8222F032D11F802CC4C788B78F1
:10105000C97842EA042243EA012142EA014101EB54
:101060008C0151F8041C3A4602F8121F4FF0080395
:1010700013714FEA1163D3704FEA114393704FEA33
:1010800011214FF00003517038BF012300219B0054
:10109000049D1172D3710FE0DAF80410049D002949
:1010A0004FF000013A4602F8121F14BF0223052335
:1010B0001371D17091705170797EBA7E284441EAE3
:1010C0000221424612F8223F00EB010B517895783D
:1010D000D47812F8020C43EA012145EA042341EADC
:1010E000034141F82070013002F8020CDAF80400E4
:1010F000002800F08B8071780420049602F067F8D5
:101100000546DAF804000324CDF80CA0EC7702F0D1
:101110004BFF0146284600F8261F0A0EC2700A0C33
:101120008270080A85F82700052085F820000A202B
:1011300085F822007220287195F82400002740F0DD
:10114000010085F824000A20722201236F7102F049
:1011500057F88246042820D32E4616F8261F4FF053
:10116000010C06F8014C7278B378F47841EA022158
:1011700043EA042216F8040C41EA024105AA00924F
:1011800072220323CDF804C002F049F8BDF8140020
:101190004FF0030A3071000A707195F8220002F0D6
:1011A00020F890F807C008220AFB0CF1A971090A7F
:1011B000E971414611F8223FAA754C788878CE78BB
:1011C00011F8022C43EA042340EA062043EA0040D7
:1011D00000EB820353F8043C85F821702F4607F892
:1011E000123F1E0EFE701E0CBE701B0A0AFB0CB7CF
:1011F000EB740223DDE903A600246B7607F1020BF2
:1012000040F82250501CAC7601F8020C4FEA1B202B
:1012100088F80700002088F806B088F819009AF8C6
:101220000C10022200294FF0720188F81F0088F884
:101230001A0008BF052288F8041088F81620B17833
:10124000726888F8050042F821800131B17006B05B
:10125000BDE8F08D2DE9F04581B0002800F08680D2
:101260000D4641780446042001F0B1FF0646286887
:101270004FF0030886F81F8002F096FE01463046C4
:1012800000F8261F0A0EC2700A0C8270080A86F83F
:101290002700052086F82000082086F8220072200A
:1012A000307196F82400002740F0010086F82400F1
:1012B000082072220123777101F0A2FF012855D87E
:1012C00096F8220001F092FFB071022086F8198092
:1012D000B075A0786168F77141F8206069680130E5
:1012E0000029B776A0704FD06178042001F06FFF1D
:1012F000064668680321F17702F056FE374607F884
:10130000260F010EF970010C000A86F827000A204A
:1013100086F8220072204FF0050A4FF00008307165
:101320000A20B97086F820A086F8058001F05EFFDB
:101330004100B17196F8241096F8272041F0010180
:1013400086F824103978BB78FF78C009F07196F8D8
:10135000220041EA022143EA072241EA02417222C5
:101360000123012701F04CFF022802D94FF0FF367C
:1013700068E07776A078616886F816A041F820606A
:10138000013086F81A80A0706178052001F01FFFF7
:1013900000264FF00308074680F8216080F81F8080
:1013A00080F82080012087F82200287A43F2382232
:1013B000C0F2000243F2FD21C0F200017A447944F8
:1013C000012808BF11463A4602F8251F0B0ED370BC
:1013D0000B0C93700A0A4FF0080A87F8262087F84A
:1013E00023A043F29C02C0F2000243F27C057A443F
:1013F000C0F20005012838467D4418BF2A4600F88F
:101400002E2F130EC370130C8370100A87F82F0051
:10141000082001F0FFFE29786A7887F8198041EAF0
:10142000022108440A303871000A78710C20B87122
:10143000A0786168FE7141F82070013087F816A02D
:10144000BE76A070304601B0BDE8F085002804BF2C
:101450004FF0FF30704780B501F0AAFE002080BD3C
:10146000002804BF4FF0FF30704710B504460078E5
:1014700010B1607801F0A1FE0020A07010BD000046
:101480002DE9F04DDDF828B0054640F27C209A4663
:1014900017460C46BBF1000FC0F200000DD0002132
:1014A00009EB00020A44D2F88820002A5CD04831B7
:1014B0009029F5D1002626B95CE009EB0006002E44
:1014C00058D0DDF820803046482102F03DFF86F8F4
:1014D00045B074611FB33878B978FA787B7841EAFF
:1014E000022140EA032040EA01407063384610F8C8
:1014F000081F7A7A8378C07841EA022143EA002003
:1015000041EA0040797917F8042FF063B878FB7846
:1015100042EA012140EA032041EA0040B0630A2088
:101520007223B8F1000F19BF41460322514604222D
:1015300001F06BFE099A2907307002D53078013826
:10154000707005F003003074C5F38010717870740A
:101550003046C6F804A0C6F80C8086F8302000F0AB
:101560000DF83046BDE8F08D4844084400F14806C7
:10157000002EA6D10020BDE8F08D00002DE9F04539
:1015800091B0044640780E4688421ED2A568207865
:1015900066700138B0423ADDE06808A90127009181
:1015A000032300284FF00A0029464FF0720208BFBB
:1015B0000423019701F033FEBDF820106818A060E5
:1015C000695C0A2925D1013022E0E568002D00F090
:1015D0008F80002EDBD000274FF001080DF1200A8C
:1015E00003E000BF0137BE42D1D020780138B842B5
:1015F000F8DD0A20294672220323CDF800A0CDF899
:10160000048001F00CFEBDF820000544EAE700204C
:10161000A06094F845000027ADF80A708DF80C0022
:1016200040F2C920C0F20000784404F13402049072
:1016300007CA05AB07C303A8FFF7AAF826786178A5
:10164000227C022E206407D30F46002918BF0127F1
:10165000731E8B42C8BF0237032A06D0022A06D067
:10166000012A08BF47F0020703E0032701E047F023
:101670000107E2688DF80B7082B1012E13D1616809
:10168000082072220023002601F0BAFD02284FD361
:10169000616804F118001827009022E094F83030B7
:1016A000294600225EE0481C6368009042F6027200
:1016B000C0F2000208AF7A4438462421019602F0B5
:1016C0002DFC08203946722200234FF0000801F05B
:1016D00097FD022804F1180C33D3182708A9CDF878
:1016E00000C0082072220123019701F09DFD33E024
:1016F0006568002E3FF44BAF00274FF001080DF155
:10170000200A03E00137BE423FF441AF20780138A0
:10171000B842F7DD0A20294672220423CDF800A042
:10172000CDF8048001F07BFDBDF820000544E9E719
:10173000616804F11800172202F0FCFD84F82F60A4
:101740000AE04FCFACE84F003888B978ACF8000019
:101750008CF8021084F82F80206C94F8303004F15B
:1017600018012A46FFF7E6F89DF80B0020B1206C1F
:101770000DF10A01FFF77EF8206CFFF767FE01F01C
:10178000FEFC11B0BDE8F0852DE9F04587B00E9E56
:10179000824600200C4602900690CDE904008DF8A8
:1017A000086040F23B11C0F20001ADF8060040F2C3
:1017B0007C20984617467944C0F20000039176B128
:1017C000002100BF09EB00020A44D2F88820002A59
:1017D0006AD048319029F5D1002525B96AE009EB96
:1017E0000005002D66D02846482102F0ADFD4FF0DF
:1017F000010C002F85F844C085F845606C6145D028
:101800003978BA78FB787E7842EA032241EA0621E9
:1018100041EA02416963394611F8082F7B7A8E78D4
:10182000CC7842EA032246EA042342EA0342EA630E
:101830003A4612F8043F7E799478D07843EA06233A
:1018400044EA002043EA0040A8633878BB78FE7879
:101850007C7843EA062340EA042040EA03400490EF
:10186000787A0B788E78C97843EA002046EA01211D
:1018700040EA01400690787911789378D27841EA6D
:10188000002043EA022140EA014005900AF00300EB
:10189000032885F800C028740ED002280ED0012835
:1018A0000CBF022000200AE04844084400F148052B
:1018B000002D98D1002518E0032000E001208DF8CC
:1018C000070002A8FEF764FF41462864FFF7EFFA1D
:1018D0009DF8070020B1286C0DF10601FEF7CAFF44
:1018E000286CFFF7B3FD01F04AFC284607B0BDE8BD
:1018F000F085000080B540F27C2C0022C0F2000C84
:1019000009EB0C0313441B6C834205D04832D82AE0
:10191000F6D1002028B980BD09EB0C001044002846
:10192000F9D004291FD0012905D00029F3D142782C
:101930008AB1511E05E003784278013B934204DDF1
:10194000511CC9B2FFF71AFE80BD027C42F00202B0
:10195000032A08D004E0027C02F0FE02022A02D030
:10196000427C002AD7D04269002A08BF80BD904738
:1019700080BD00002DE9F041804640F27C201D46EC
:1019800014460E46C0F200006BB1002109EB0002C4
:101990000A44D2F88820002A44D048319029F5D151
:1019A000002727B944E009EB0007002F40D0384654
:1019B000482102F0C9FC022087F8440087F845500E
:1019C0001EB33078B178F278737841EA022140EAA8
:1019D000032040EA01407863304610F8081F727A0D
:1019E0008378C07841EA022143EA002041EA0040BE
:1019F000717916F8042FF863B078F37842EA012180
:101A000040EA032041EA0040B863207938726079E7
:101A100078722068C7E90080384600F00CF8384634
:101A2000BDE8F0814844084400F14807002FBED1CA
:101A30000020BDE8F081B0B586B0044694F84510AA
:101A4000002001908DF8041040F2DD10C0F200007B
:101A5000784404F13402029007CA03AB07C301A81B
:101A6000251DFEF795FE29462064FFF7B9F9207A77
:101A7000022814D36A790121ADF80210002A114618
:101A8000A0F1010018BF01219042C8BF02318DF8BA
:101A9000031021B1206C0DF10201FEF7EBFE206C6A
:101AA000FFF7D4FC01F06BFB06B0B0BD2DE9F045AB
:101AB00087B00E9E824600200C4602900690CDE92B
:101AC00004008DF808604FF61761CFF6FF71ADF88E
:101AD000060040F27C20984617467944C0F2000088
:101AE000039176B1002100BF09EB00020A44D2F84D
:101AF0008820002A6AD048319029F5D1002525B9DF
:101B00006AE009EB0005002D66D02846482102F066
:101B10001BFC4FF0010C002F85F844C085F8456090
:101B20006C6145D03978BA78FB787E7842EA032236
:101B300041EA062141EA02416963394611F8082F5A
:101B40007B7A8E78CC7842EA032246EA042342EA82
:101B50000342EA633A4612F8043F7E799478D078DB
:101B600043EA062344EA002043EA0040A8633878A9
:101B7000BB78FE787C7843EA062340EA042040EAFA
:101B800003400490787A0B788E78C97843EA002075
:101B900046EA012140EA014006907879117893786D
:101BA000D27841EA002043EA022140EA0140059050
:101BB0000AF00300032885F800C028740ED002281C
:101BC0000ED001280CBF022000200AE0484408443F
:101BD00000F14805002D98D1002518E0032000E011
:101BE00001208DF8070002A8FEF7D2FD41462864C7
:101BF000FFF730FB9DF8070020B1286C0DF10601BE
:101C0000FEF738FE286CFFF721FC01F0B8FA2846F1
:101C100007B0BDE8F085002804BF4FF0FF307047E3
:101C200010B50446006CFFF71BFC0021216410BDB9
:101C300080B540F27C2C0022C0F2000C09EB0C03B2
:101C400013441B6C834205D04832D82AF6D10020B9
:101C500028B980BD09EB0C0010440028F9D00429F4
:101C600008D001290AD00029F3D1417A0029F0D007
:101C700001390AE00168407A884780BD027A417ADA
:101C8000013A8A42D8BF80BD01314172FFF7D3FECD
:101C900080BD2DE9F04D054640F25430C0F2000001
:101CA00009EB00040F46DDE9088A204640219B46E7
:101CB000164602F049FB4046C4E90457A66102F00B
:101CC00073F9E061504602F06FF90A9EBBF1FF0F15
:101CD000C4E908060B98A06218BFB8F1000F0ED136
:101CE00040F25437C0F2000719F807000E280BD055
:101CF0000F2814D10220002E08BF012010E0584602
:101D000000F02EF8BDE8F08D09EB0701CA6902204A
:101D1000002E08BF012048722AB1013000E00020E7
:101D200009EB0701487209EB0701D1E907230D20F0
:101D300009F807000320002A08BF0220002B0872C0
:101D40001EBF013009EB0701087226B109EB07003D
:101D5000017A01310172002000F0E1FDBDE8F08D53
:101D6000F0B58FB0044601A8382102F0EDFA40F238
:101D70005436C0F2000619F8060009EB06011028D7
:101D80001CBF0F2009F806000122C8690A72017AF7
:101D9000B9B3002701AD0EE009292CD00A292ED1B4
:101DA000007B09EB06010A7A01370244C8690A720E
:101DB000017A8F4225D2F9B22A4600F0E2F9017881
:101DC000062909DC03290FDC00294FF00100E8D0C7
:101DD000032918BF0020E4E70829DDDC07290CD01F
:101DE00008290CD1007CDCE70429D9D0062906D1CA
:101DF000007B0130D5E7407AD3E7007AD1E70020B5
:101E0000CFE709EB060044720020002100F057FCE8
:101E10000FB0F0BD80B540F2543EC0F2000E19F88C
:101E20000E100E290BD00F2918D109EB0E0101223B
:101E30004A724A6A0221002A08BF01210FE009EB19
:101E40000E02536AD2F81CC00221002B08BF0121E8
:101E5000BCF1000F517205D0013100E0002109EB07
:101E60000E02517209EB0E020D21D2E9073009F87A
:101E70000E100321002B08BF0221002811721EBF83
:101E8000481C09EB0E01087209EB0E00406A20B1F4
:101E900009EB0E00017A01310172002000F03FFDD4
:101EA00080BD2DE9F04D9AB08A4606460CA838212F
:101EB0009846174602F048FA0024CDE90A4440F655
:101EC0007B40C0F20000784402F06EF840F2543BD0
:101ED000079040F6B830C0F2000B089009EB0B00F9
:101EE000017A0020022909940AD309EB0B00427AF7
:101EF0002AB101390320914208BF022000E00120ED
:101F000040EA060109EB0B0090F83030C56A0E4636
:101F100019F80B20012B88BF46F00206002D08BFE0
:101F20000E46062A18BF0E4602F0F701012907AB3C
:101F300008BF1C460A2A03D1406A08B1FFF76BFEAE
:101F4000239DBFB12299BAF1000F2ED12498022807
:101F50002BD00122012808BF0222B8F1000F08BFD0
:101F60004246CDE90082304622463B460295FFF7C5
:101F700087FA4DE009EB0B00407A03A90CAA00F0A8
:101F8000DDFA50B301782E460A294FF0000526D01D
:101F900009293ED1043002F007F8417980790131F6
:101FA0008DF82C108DF82D0022E003A880E8800524
:101FB00000208DF8180009EB0B00C268C07A42EAD5
:101FC0000802104318BF01208DF8190003AB3046FA
:101FD00022460095FFF7D8FB1AE0002519E00430EF
:101FE00001F0E2FF007A8DF82D5001308DF82C00C1
:101FF00040F65F30C0F2000078440A9040F6C930E5
:10200000C0F2000078440AAA21463346FFF7B2FC2A
:10201000054619F80B000A2804BF09EB0B004562BE
:102020001AB0BDE8F08D2DE9F04D40F2543AC0F2FF
:10203000000A09EB0A050C460646DDF820B02846E2
:1020400040219846174602F07FF905F11801082053
:1020500081E88009099909F80A000020C5E90910FA
:102060000321C5E9046468720320002F18BF04210E
:10207000002E08BF01460020002C08BF0221297253
:1020800000F002F8BDE8F08DB0B584B040F2543CE9
:10209000C0F2000C09EB0C014A694FF0000E8AB146
:1020A00009EB0C010B698969B3FA83F3B1FA81F189
:1020B0005B094909194381F001014FF0020318BF80
:1020C000012301E00021002309EB0C056C7AC5F81F
:1020D0000CE0A34208D909EB0C034CB39B6900291F
:1020E00004BF0A460B463CE00FD109EB0C01CA695C
:1020F00040F65733C0F200037B44CB6042F24841C4
:10210000C0F20001794400232CE0591CA14215D1F2
:1021100009EB0C010A6A40F64B33C0F200037B4422
:10212000CB6042F2C931C0F200017944002319E0CA
:1021300019699B69002918BF002313E009EB0C0102
:10214000896A61B10A79032A09D1E21A6FF007039B
:1021500003EB8203D1E90321D258CB5801E00022DE
:102160000023002140F61534C0F2000400257C4411
:10217000CDE900450295FFF794FE01F000F804B0A8
:10218000B0BDF0B58DB00D46064601A8302117460A
:1021900002F0DAF8307AA8421ED93078F8B1DFB10F
:1021A0003846382102F0D0F840F25430C0F2000036
:1021B0004844826AE2B101AE28463146904758B1A0
:1021C0009DF8041000200629397016DC032923DC51
:1021D000C9B1032917D009E000200DB0F0BD706827
:1021E000C5EBC50100EBC10001F0DEFE0DB0F0BD96
:1021F000726828463946904732E008291ADC0729D8
:1022000023D00829F2D102980399049A059B78609B
:10221000B960FA603B6123E004291BD00629E5D1AF
:1022200006F1040CBCE86D00391D6DC19CE87D0011
:102230007DC115E0092901D00A29D7D10298039957
:10224000049A7860B960FA600AE0DDE90201C7E942
:10225000010105E006F1040C9CE86D00391D6DC11B
:1022600038460DB0F0BDF0B58DB040F25435C0F237
:102270000005074609EB0500027A437A013A9A42C3
:102280004FF00002CDE90822CDE90622CDE9042273
:10229000C2600DDD04AA0846114600F06FF89DF8F3
:1022A00025009DF8261009EB05024000D1721EE0C2
:1022B00009EB050042F25D41C0F20001026A794477
:1022C000C36A002A18BF1146059119F8051042F299
:1022D0001322C0F2000242F2CF16C0F200067E4482
:1022E0007A44032908BF1646C360002007969DF86C
:1022F0001010B1B109EB0500047ADDE905129DF873
:1023000024304FF0000C022C4FF000001BD309EBDF
:102310000500467AB6B1013C0320B44208BF022052
:1023200011E0DDE90523079940F2E714C0F200044B
:10233000C6B200207C44CDE9004038460296FFF743
:10234000B0FD13E00120002B18BF01238DF83030C1
:10235000CDE90A1240F2BD11C0F2000138437944C0
:102360000AAB0022CDF800C0FFF7A0FB09EB050087
:102370000021C17200F003FF0DB0F0BDF0B58FB0C9
:10238000064600206D460C468DF83B002846382155
:1023900001F0DAFF40F25437C0F2000709EB070002
:1023A000407A0DF13B012A4600F0C8F8002800F001
:1023B000A28005460078062810DC032823DC0028CC
:1023C00050D0032840F09780A86801F0EDFDE06050
:1023D000686801F0E9FD6060E86848E0082821DCF1
:1023E000072847D0082840F08680686801F0DCFDA7
:1023F0009DF83B6050F826006060A86801F0D4FDAD
:1024000050F8260055E0042856D0062873D19DF8D0
:102410003B00297B884270D26968002951D1A968A4
:10242000884750E0092801D00A2864D1281D01F00E
:10243000BBFD006801F0B8FD19F8072009EB0701A2
:102440000969112A054600D119B9102A4CD1002971
:102450004AD0084601F0A8FD9DF83B10606055F891
:10246000210004E0686801F09FFD6060A86801F049
:102470009BFD1EE001202070686801F095FD9DF82D
:102480003B1001EB410150F8212000EB810062601C
:10249000017A4A1E18BF0122002E08BF0A46227583
:1024A00040F26112C0F2000209EB07017A44CA60EF
:1024B0004068A0600FB0F0BD69689DF83B0000293E
:1024C000ADD001EB001001F06FFD01686160416863
:1024D000A160017B4A0703D489071AD4002000E0D9
:1024E000806820610FB0F0BD9DF83B0055F82000DA
:1024F00001F05AFD60600FB0F0BD686A606042F2A2
:102500004600C0F200007844E0600120A0750FB0E2
:10251000F0BD012161758068E0600FB0F0BD80B54D
:1025200082B008460DF1070100F051F920B19DF885
:1025300007000021FFF797FE02B080BD2DE9F04DA6
:1025400040F2543AC0F2000A09EB0A07884617F82D
:10255000141B064611294FF0000054D8934601225F
:1025600002FA01F111F4D03F03D009EB0A00C76968
:1025700004E00822C0F20202114244D0387A002856
:1025800043D00024002506E03A7A013494420D46F7
:1025900028BFBDE8F08DE1B238465A46FFF7F1FD9D
:1025A0000278062A08DC032A0EDC4FF00101FAB19A
:1025B000032A18BF00211BE0082A0DDC072A11D0CE
:1025C000082A13D1017C13E0042A09D0062A0DD170
:1025D000017B01310CE000BF092A05D00A2A05D190
:1025E000017B05E0017A03E0417A01E0002100BFB0
:1025F000EAB2C9B21144B142C6D909EB0A01497A1B
:10260000491B88F80010BDE8F08D0020BDE8F08D72
:10261000F0B58FB001AC2046382101F095FE40F2B4
:102620005436C0F2000609EB0600407A0DF10301B2
:102630002246FFF783FF00283FD004460078072892
:102640003BD1606801F0B0FC19F806109DF80370EA
:102650001129054612D80120884010F4D03F04D03B
:102660000020012100F02BF808E00821C0F202014F
:10267000084203D000200121FFF7F5FD606B88B10F
:1026800001F092FC034607EB470005EB8000017A5E
:1026900009EB0602407A527A013918BF01219847A6
:1026A0000FB0F0BD09EB0600426A32B107EB4700FC
:1026B00005EB8000407A002190470FB0F0BD70B567
:1026C0008CB040F25435C0F20005064609EB050017
:1026D000027A437A013A9A424FF00002CDE907228A
:1026E000CDE90522CDE90322C26005DD03AA084633
:1026F0001146FFF743FE19E041F6AD50C0F200006D
:102700007844069019F8050042F20B01C0F200016E
:102710007944102809EB0500049101D1816A04E095
:102720004FF2E961CFF6FF717944C1609DF80C006A
:10273000B0B109EB0500047ADDE904129DF8203000
:102740004FF0000C022C4FF000001AD309EB0500EB
:10275000457AADB1013C0320AC4208BF022010E035
:10276000DDE90423069940F23D00C0F20000002597
:102770007844CDE9000530460295FFF792FB13E05F
:102780000120002B18BF01238DF82C30CDE9091250
:1027900040F21301C0F200013043794409AB00223A
:1027A000CDF800C0FFF782F900F0E9FC0CB070BD75
:1027B00080B582B008460DF1070100F008F820B19D
:1027C0009DF807000021FFF77AFF02B080BDB0B589
:1027D00090B00C46054601A8382101F0B5FD042D46
:1027E0000FD0012D17D0002D40F0968040F25431CB
:1027F000C0F2000109EB0100407A10B3411E08202D
:1028000015E040F25434C0F2000409EB0400C06843
:1028100038B3804780E040F25430C0F200004844B2
:10282000017A407A0139814276DD411C002040F274
:102830005432C0F200024A4451722070012010B09C
:10284000B0BD19F8010006284FF00000F7D1494447
:10285000CA6A002AF3D091F830100129EFD008207D
:10286000EBE719F8041000201129E8D8012202FA38
:1028700001F148F20802C0F203021142DFD009EB75
:102880000400407A0DF13F0101AAFFF757FE00282E
:1028900042D00178024605294FF000000ADD0829E0
:1028A00011DC06291BD007294FF0000126D1506802
:1028B000407A1DE00029C2D0032918D004294FF026
:1028C0000001BCD01AE0092914D00A294FF00001F8
:1028D00014D109EB04019068497A405C08E09DF846
:1028E0003F00117B884217D392F82C0000E0107C47
:1028F000002103E009EB0401D07A497A536B2BB134
:1029000009EB04014A7A0021984705E009EB04022B
:10291000526A002A18BF9047002010B0B0BDF0B531
:1029200083B040F25436C0F2000609EB0605696A2E
:10293000D5E9072307460220002908BF0120002A05
:1029400018BF0122024408BF4FF0FF30002B6B7A02
:102950004FF0000408BF4FF0FF32EC608BB101254F
:10296000002908BFFF259D4212D1D1E9000501F0E1
:102970001BFB09EB06014A6A93680246CB60002301
:102980004CE009EB0600D0E905527AB3002345E09C
:10299000C0B2834213D140F29901C0F2000109EBA9
:1029A00006007944C16041F61A35C0F2000541F6CF
:1029B0000A52C0F200027D4400237A442EE0D0B2D5
:1029C00083421CD140F27501C0F2000109EB060000
:1029D0007944C16041F65725C0F2000541F66352C3
:1029E000C0F200027D4400237A4417E009EB0600A0
:1029F000026941F66353C0F200037B440EE009EB29
:102A00000600816A0023C16041F64625C0F2000538
:102A100041F65052C0F200027D447A4440F2470031
:102A2000C0F2000000267844CDE900063846294669
:102A30000296FFF736FA00F0A2FB03B0F0BD80B5B6
:102A40000020FFF78DF980BD80B540F25430C0F210
:102A5000000009EB00010A6A0E23127B09F800301E
:102A6000501C087200204872002000F00FF880BD52
:102A700080B582B008460DF10701FFF7A8FE18B136
:102A80009DF80700FFF74BFF02B080BD70B584B022
:102A9000044640F25430C0F2000009EB00010A7A0B
:102AA0004B7A013A9A424FF00002CA6018DD09EBF6
:102AB0000006306A006801F077FA717A50F8210058
:102AC00001F072FA316A05464968084601F06CFA6D
:102AD000717A50F8210001F067FA0346002111E0F5
:102AE0004FF22731CFF6FF7148447944C16041F677
:102AF000AF11C0F2000141F61945C0F2000579445A
:102B000000237D4440F21702C0F2000200207A4404
:102B10000226CDE9002020462A460296FFF7C1F999
:102B200000F02DFB04B070BD80B582B008460DF1F9
:102B30000701FFF74CFE18B19DF80700FFF7A6FF4D
:102B400002B080BD80B540F25430C0F2000048446D
:102B5000C068002818BF804780BDB0B590B001ADF7
:102B600004462846382101F0EFFB40F25430C0F211
:102B700000004844407A0DF13F012A46FFF7DEFC91
:102B800058B101780A290BD0092906D1043001F087
:102B90000BFA054655F8050B08E0002010B0B0BD53
:102BA000043001F001FA054655F8080B01F0FCF974
:102BB0002978A14205D950F8240001F0F5F910B0A8
:102BC000B0BD41F65130C0F20000784410B0B0BD45
:102BD00070B590B001AD04462846382101F0B4FB31
:102BE00040F25436C0F2000609EB0600407A0DF1BF
:102BF0003F012A46FFF7A2FC48B301780A2909D011
:102C0000092913D1043001F0CFF94179A1420DD93E
:102C1000073007E0043001F0C7F9017AA14205D975
:102C2000406820440078FF2803D10AE0FF20FF28F5
:102C300007D009EB06014A6A1AB10021904710B08B
:102C400070BD09EB0600C06A002818BF804710B0AD
:102C500070BD80B540F25430C0F200004844416A73
:102C6000002908BF80BD0120884780BD80B540F2A3
:102C70005430C0F200004844416A002908BF80BDBA
:102C80000020884780BD80B582B008460DF107015D
:102C9000FFF79DFD18B19DF80700FFF7F5F902B0A9
:102CA00080BDB0B5D0E901531446ED1A954206D85F
:102CB0000068C218084611462A4601F03DFB002074
:102CC000A54298BF0120B0BD704780B540F2943056
:102CD000C0F2000019F800100E2906D005290AD10B
:102CE000484400F004F9012080BDFFF7EDFF00F03B
:102CF0003BF9012080BD00F073F9012080BD40F256
:102D0000A440C0F20000012109F800107047000043
:102D100010B540F2A444C0F2000419F804000128E0
:102D200004D101F0CDF9002009F804000120FDF7DD
:102D3000CAFB0128FADB10BD2DE9F04D82B09046A8
:102D4000002858D00E46002955D00746CDF80480FB
:102D50004FF0000A4FF00108002500BF40F20000CC
:102D6000C0F200004844411940F20F10421B38469F
:102D7000FFF797FF0446A8B1D7E90130022EA3EB75
:102D80000000054415D3D7F800C041F67F00C0F21B
:102D900000000AF1010178443246CDF800C000F08D
:102DA00073FA06E00020002146F68422FFF7C4FFF4
:102DB00083465CB10AF1010AB2454FF0000838BF02
:102DC0004FF00108564507F10C07C7D15FEAC870FC
:102DD0002CD140F20000C0F2000009EB000341F6E4
:102DE0001200C0F20000DDF80480784441462A4613
:102DF00000F04AFA08E041F62210C0F200007844E0
:102E0000414600F041FA002540F20000C0F2000007
:102E100009EB000420462946424600F061F8A81C50
:102E200081B22046FDF731FB40EAE07B584602B014
:102E3000BDE8F08DFF2001F02DF980B500F0A4F978
:102E4000FDF781FC80BD10B58CB041F69400C0F256
:102E50000000784400F018FA6C46204601F0B8FAF9
:102E60000104ADF82C0013D1204601F063F90A905B
:102E7000FFF7E3FFFDF73EF901F052F9A04202D15E
:102E80000A9801F057F9BDF82C0058B9FFF7D2FFA6
:102E90000A980021ADF82C1001F04CF901F01CF952
:102EA00000F04AF900F0D7F9042A17D302D1002222
:102EB000027104E00B79053A9A4203710ED10A7847
:102EC000037902704A78002B42708A788270CA783F
:102ED000C27018BF4B1D83600120704700207047EF
:102EE000130A00EB010C43548CF801207047B0B575
:102EF000044640F2A840C0F20000012109F8001089
:102F000009EB000500206860284601F0A0F80420C5
:102F100001F01EF96928686008D1012000F039F934
:102F200000F046F900F02BF9002508E0B0F1970118
:102F300018BF0121002818BF012001EA000528461A
:102F400000F027F9002D08BFB0BD40F2B841C0F233
:102F50000001E07859F8011064224008514300F064
:102F600068F900F00CF9B0BD10B540F2B840C0F2FD
:102F7000000059F80010013149F8001040F2A84053
:102F8000C0F20000012109F8001009EB0004002044
:102F90006060204601F05BF8042001F0D9F8692850
:102FA000606008D1012000F0F4F800F001F900F0B1
:102FB000E6F8002408E0B0F1970118BF01210028CD
:102FC00018BF012001EA0004204600F0E2F8002CBE
:102FD00008BF10BD642000F0F5F800F0D0F810BD77
:102FE00010B540F2A840C0F20000012109F800101D
:102FF00009EB000400206060204601F028F804205E
:1030000001F0A6F86928606018BF10BD012000F02B
:10301000C0F800F0CDF800F0B2F810BD70B58AB07D
:103020000C4600F026F90546204600F022F941F250
:10303000F962C0F200020DF10A0604467A443046F5
:103040001E212B46009400F069FF40F2BC40C0F204
:103050000000484431461E2201F0D0F90AB070BD8C
:10306000B0B50C4600F005F90546204600F001F920
:10307000044641F2F960C0F200007844294600F0AD
:1030800003F941F2A750C0F200007844214600F055
:10309000FBF8B0BD10B58EB041F2F252C0F20002A2
:1030A0000DF106048C4603467A4420463221CDF8C1
:1030B00000C000F033FF40F2BC40C0F200004844C2
:1030C0002146322201F09AF90EB010BD80B50A46B1
:1030D000014641F27A60C0F20000784400F0D4F872
:1030E00080BDB0B582B00546084600F0C2F804467F
:1030F00040F2BC4041F2CF52C0F20000C0F20002E8
:1031000048447A4482212B46009400F007FF02B025
:10311000B0BD10B50446084600F0ABF8024641F2D7
:10312000D550C0F200007844214600F0ADF810BD43
:10313000FF2000F0AFFF000082B04FF6C37CCFF657
:10314000FF7C41F29B43C0F2000340F2BC407B4451
:10315000C0F20000009309EB000241F20340C0F20C
:10316000000041F27141C0F20001FC44784479440E
:10317000CDF804C0FEF757FFFDF731F9FCE703B4C3
:103180004FF0910000F05EB803B44FF0960000F0ED
:1031900059B803B44FF0980000F054B803B44FF09E
:1031A0009B0000F04FB803B44FF09C0000F04AB809
:1031B00003B44FF09D0000F045B803B44FF09E00FB
:1031C00000F040B803B44FF0A70000F03BB803B4E0
:1031D0004FF0A80000F036B803B44FF0AA0000F09A
:1031E00031B803B44FF0AC0000F02CB803B44FF08A
:1031F000AE0000F027B803B44FF0B30000F022B8DF
:1032000003B44FF0B40000F01DB803B44FF0B500A4
:1032100000F018B803B44FF0B60000F013B803B4D0
:103220004FF0B70000F00EB803B44FF0B80000F054
:1032300009B803B44FF0BE0000F004B803B44FF077
:10324000C400FFE7004908470180800080B50020E6
:1032500000F070FF80BD754629460446FFF741FF28
:1032600020462946FFF755FF00F05AFF214601F09E
:10327000B5F84CF68351CFF6FF717944401A00F14E
:10328000404000F55E00704783B02DE9F04D91B0ED
:103290000028CDE919121B9300F0F782044600784C
:1032A0000DF1640B0028CDF81CB000F0EE8241F265
:1032B0003C36C0F200067E440AE000BF41F22E36E2
:1032C000C0F200067E4454462078002800F0DD82DB
:1032D000002700BFE05D18B1252801D00137F9E7CC
:1032E0001FB1B9B22046FDF74BF83C4420782528A1
:1032F000EAD101344FF0000E4FF0200C4FF00008DF
:10330000002102E04FF0000117D114F8012B2D2A03
:10331000F8DD472A32DCA2F130000A281AD282F006
:10332000300050EA0E000EEB8E0002EB400008BFAA
:103330004FF0300CA0F1300EE7E7252A4CD02A2AB6
:1033400040F0A3822078732840F09F825BF8048BC2
:103350000221DAE72E2A40F0988220782A2840F0CD
:10336000948214F8010F0121482804D0682802D063
:10337000732840F08A825BF8048BC6E76B2A0BDC6B
:10338000622A12DD632A2DD0642A33D0682A40F0E5
:103390007C8201203CE000BF722A0EDD732A36D009
:1033A000752A3BD0782A0ED06FE2482A00F0E680DA
:1033B000582A40F06A82012006E06C2A00F0018160
:1033C000702A40F0628200200590DBF80000102691
:1033D00010904FF0000829E041F2CA30C0F200001E
:1033E000784403E05BF8040B109010A80121FCF76F
:1033F000C7FF69E7DBF80000B0F1FF3F109010DC79
:103400004042109000200A264FF001080DE00020F5
:1034100041F2BC3AC0F2000AFA44B5E0DBF8000021
:10342000109000200A264FF0000805901099CDF862
:1034300010B08E4202D9012501270EE00222334648
:103440001D46A6FB0330002818BF01208B421746FB
:1034500003D8002807F10102F2D007EB0801BEEB08
:10346000010B5FFA8CFA88F00100CDF818804FF05C
:10347000000838BFC346BAF1300218BF012210431A
:1034800006D12D208DF8200000204FF00108069075
:1034900071451AD30698A246A0B3DDF810B0B8F172
:1034A000200F08AC06D31FFA88F12046FCF768FF0E
:1034B0004FF000082D2004F8080008F101082DBB8A
:1034C00050E000BFBBF1000FE4D0C8F12007BB45BE
:1034D00098BF5F4637B108A840443946524600F0CD
:1034E0002DFFB844B8F1200FABEB070BEAD3BBF1CB
:1034F000000FE7D01FFA88F108A8FCF741FF4FF052
:103500000008DFE7DDF810B008AC5DB3059841F2C4
:10351000C8270028C0F2000741F2B2207F44C0F261
:103520000000784408BF074610E000BF1098AE4284
:10353000B0FBF5F0B5FBF6F5B0FBF6F101FB1600BC
:10354000385C04F8080008F101080BD8B8F1200F26
:10355000ECD31FFA88F12046FCF712FF4FF0000869
:10356000E4E700BFB8F1000F0BF1040B3FF4A6AE87
:103570001FFA88F12046FCF703FF9FE641F25E2A1E
:10358000C0F2000A0120FA445BF8045BC9B20029CA
:103590004DD0012974D002294FD12878002840F05D
:1035A0007481B8F1000F00F09F804546304601213C
:1035B000FCF7E6FE013DF9D14246BA427FF684AE01
:1035C0007CE020786C2840F06081234613F8011FCE
:1035D000A1F16400142807D8012202FA00F00122A8
:1035E000C0F21202104202D1582940F04E810BF174
:1035F000070020F00700426850F8085B7429049027
:1036000065DC582975D0642940F0868015EBE2709E
:1036100080EAE27542EBE270D10F80EAE27241F299
:10362000AA10C0F20000A31C0A24784472E0002112
:103630006A5C0131002AFBD14F1E20B3A046002F47
:103640004CD00024002602E00136B74225D0A95D07
:1036500008A80A0901F00F011AF802201AF801104F
:10366000031902555970A11CA4F11D0010F1210F7E
:103670000C46E9D889B208A8FCF782FE0024E3E7EB
:1036800047460028DAD1B9B228467546FCF778FEDD
:103690002A46BA427FF618AE10E040F64C76C0F2E9
:1036A00000063A4608A87E4424B1A1B21446FCF7AD
:1036B00067FE22464446BA427FF606AEBD1A00BFF8
:1036C00030460121FCF75CFE0135F9D3FCE5752994
:1036D00018D0782920D1A31C102415E00022002442
:1036E00008A8002CE1D1E5E70022BA427FF6ECAD54
:1036F000E4E741F2E400C0F20000A31C1024002122
:10370000784407E0A31C0A2441F2C200C0F2000082
:1037100000217844059009E041F2B400C0F20000B5
:10372000784400210A24059000250022281B0695D4
:10373000934672F100004FF00005CDE9013105D24A
:1037400001224FF001084FF0000A1BE00021022780
:10375000234600BF8A469846A4FB0330A1FB04160B
:1037600009184FF0000040F10000002E18BF01269C
:10377000069AD21A7BEB01023A4603D3304302F198
:103780000107E7D002981118BEEB01065FFA8CF230
:1037900038BF2E46302A039255D15F4628B12D20DE
:1037A0008DF82000002001250290714553D3029826
:1037B00050B1DDF810B0202D0CD308AEA9B23046C0
:1037C000FCF7DEFD002506E0DDF810B058EA0A003F
:1037D00035D106E008AE2D207055013558EA0A00B3
:1037E0002DD11DB1A9B208A8FCF7CAFD019C40F675
:1037F000FC56C0F200067E4466E500BF08AEA9B2E2
:103800003046FCF7BDFD0025069839464246534632
:1038100000F09EFD2246002300F09AFD05985146D7
:10382000805C2246705540460023013500F090FD33
:10383000B8EB04027AF1000280468A46D1D3202DEB
:10384000DCD208AEE0E75F46714504D3AFE700BFC6
:103850005F46002EABD0C5F12007BE4298BF374669
:1038600037B108A8039A2844394600F067FD3D4463
:10387000202DA6EB0706EBD3002E5F46E9D0A9B2B8
:1038800008A8FCF77DFD0025E3E711B0BDE8F04D89
:1038900003B070472DE9F04D92B0884611780029A9
:1038A00000F033831F46924606460DF1240ECDE903
:1038B00007800EE040F6EE60C0F20000784401217F
:1038C0004246B0470DF1240E9AF80000002800F09F
:1038D0001C834FF0000B00BF1AF80B0020B1252805
:1038E00002D00BF1010BF7E7BBF1000F05D05046FA
:1038F00059464246B0470DF1240EDA449AF80000CA
:103900002528E1D10AF1010A00234FF0200C0025FF
:10391000002102E04FF0000116D11AF8012B2D2AE8
:10392000F8DD472A34DCA2F130000A281AD282F0EE
:103930003000184303EB830002EB400008BF4FF058
:10394000300CA0F13003E8E7252AB3D02A2A40F052
:10395000E0829AF80000732840F0DB8257F8045B9D
:103960000221DAE72E2A40F0D4829AF800002A28B1
:1039700040F0CF821AF8010F0121482804D06828AE
:1039800002D0732840F0C58257F8045BC5E700BF3A
:103990006B2A11DC622A18DD632A2AD0642A2DD012
:1039A000682A0DF1240E40F0B48240F62066C0F281
:1039B000000601207E4442E0722A0DDD732A29D0E0
:1039C000752A2ED0782A0CD0A3E2482A31D0582A62
:1039D00040F09F82012005E06C2A59D0702A40F007
:1039E00098820020CDE904703868102711900025D6
:1039F000F4E057F8040B119011A860E738680497B9
:103A0000B0F1FF3F119040F3E08000200A2700252D
:103A10000590E0E040F6B656C0F2000600207E4475
:103A20000DE03868049711900A27002500200590C2
:103A3000D4E040F6A856C0F2000601207E4457F8B4
:103A4000044BC9B200295ED0012964D0022963D198
:103A50002078002840F05D82002D00F068810497F6
:103A6000089F40F68636C0F200062C467E4400BF12
:103A7000304601214246B847013CF9D12B46354634
:103A80003E46049F0DF1240E5B457FF61DAF93E08B
:103A90009AF800006C2840F03C82564616F8011F48
:103AA000A1F16400142807D8012202FA00F00122D3
:103AB000C0F21202104202D1582940F02A82F81DA9
:103AC00020F007000246476852F8085B742959DC69
:103AD000582900F03781642940F04F810AF1020033
:103AE0000190F80F029015EBE77080EAE77547EB5D
:103AF000E77080EAE77740F6D240C0F200004FF06E
:103B00000A08784437E10021625C0131002AFBD1C8
:103B1000A1F1010B00E0AB4640F6D225C0F2000552
:103B20007D4410B3BBF1000F38D00021002502E026
:103B30000135AB451DD0605D0EEB0103020900F0BD
:103B40000F00305CB25C5870A1F11D000EF801202E
:103B500010F1210F01F10201EAD8089B704642469C
:103B600098470DF1240E0021E2E7089E20465946B1
:103B700019E0089E40F67425C0F200055B467D44BE
:103B800081B916E0752900F0EA80782940F0F580C7
:103B90000AF1020001904FF01008E5E0089E0023B2
:103BA000002131B1704642461C46B04723460DF114
:103BB000240E5B457FF688AEABEB0304284601215B
:103BC0004246B0470134F9D37CE6404211900020D0
:103BD00005900A2701250DF1240E00BF11991C46FE
:103BE0008F4203D94FF0010B01200EE002233A4629
:103BF0009346A7FB0226002E18BF01268A421846CC
:103C000003D8002E00F10103F2D0284485F0010111
:103C10000695B4EB00085FFA8CF523464FF00004DC
:103C200038BFA046B5F1300218BF0122114305D1BB
:103C30002D218DF82410002101240691089E984220
:103C400014D3069888B3202C35D3DDF81C80704639
:103C500021464246B0470DF1240E00242DE000BF5E
:103C6000089E0DF1240EB8F1000FEAD0C4F1200631
:103C7000B04598BF464636B10EEB040031462A46A1
:103C800000F05CFB3444202CA8EB0608E8D3089E27
:103C9000B8F1000F0DF1240EE5D0079A70462146C9
:103CA000B0470DF1240E0024DDE7DDF81C80BBF1E8
:103CB000000F09D132E0DDF81C802D200EF8040041
:103CC0000134BBF1000F29D0059840F60C350028CF
:103CD000C0F2000540F6F6207D44C0F200007844B2
:103CE00008BF054610E000BF11985F45B0FBFBF030
:103CF000BBFBF7FBB0FBF7F101FB1700285C0EF8EC
:103D0000040004F1010409D8202CEDD370462146AB
:103D10004246B0470DF1240E0024E5E7049F002C35
:103D200007F104073FF4D0AD70462146C8E5089E70
:103D300040F6B805C0F2000500237D445B457FF6E0
:103D4000C3AD39E70AF1020001900020029040F66D
:103D50008A20C0F200004FF0100878440BE00AF10E
:103D600002004FF00A0801900020029040F6602007
:103D7000C0F20000784405900CE00020019602900B
:103D800040F64C20C0F2000078444FF00A0805903D
:103D900000250027B5EB08004FF0000A9B4677F19D
:103DA00000004FF0000404920695039703D201220D
:103DB000012500271AE000214FF0020E434600BF04
:103DC0000F461D46A8FB0330A1FB081609184AF14F
:103DD0000000002E18BF0126069AD21A039A8A41C3
:103DE000724603D3304302F1010EE9D00298111854
:103DF000BBEB010A5FFA8CF238BFA2461646302AA6
:103E00005DD1002809A805D02D228DF8242000229C
:103E10000124029259455BD3029969B1DDF80CA0E7
:103E2000202C05D3DDE907232146984709A8002463
:103E30002D210155013401E0DDF80CA0DDF820B0A2
:103E400055EA070029D18CB3DDF81C8009AD28465E
:103E5000214642465E46D847DDF804A0049FAE46A0
:103E600032E500BF069851462A463B4600F070FAFC
:103E70004246002300F06CFA05983946805C4246C1
:103E8000305528460023013400F062FAB5EB0802F1
:103E900077F1000205460F46D5D309AE202CE1D3B9
:103EA000079A30462146D8470024DBE7DDF804A016
:103EB000DDF81C80049F0DF1240E5E4604E509A880
:103EC000594505D3A8E700BF09A8BAF1000FA3D050
:103ED000C4F1200BDA4598BFD346BBF1000F05D0E3
:103EE00020445946324600F029FA5C44202CAAEBC3
:103EF0000B0AE9D3BAF1000F09A8E6D0DDE90723E0
:103F00002146984709A80024DFE7002012B0BDE849
:103F1000F08D4FF0FF3012B0BDE8F08D81B070B57C
:103F200085B0054600284FF0FF3009931DD00E469E
:103F3000D9B128463146144600F006FA701ECDE984
:103F40000150002009AB0390049340F21F00C0F21F
:103F50000000784401A92246FFF79CFC0146039823
:103F6000B1F1FF3FD8BF4FF0FF3005B0BDE8704062
:103F700001B07047B0B514460246D4E90150084478
:103F8000002DA06008BFB0BD20688D4288BF0D46DF
:103F900011462A4600F0D0F9D4E900012844491B13
:103FA000C4E90001B0BD00000A4981420A4906D8AF
:103FB000814204D380B500F015F8BDE88040074980
:103FC0008842074A05D3904288BF7047401A4A4644
:103FD000104470470000DEC04348DEC000007ADABB
:103FE00000A07ADA7A460249C91C891A401A704739
:103FF000E53FDEC001DF002900D170470846FFF72A
:104000002AF980B586B0DDE908EC8DE80F40AA20DA
:10401000C0F200606946CDF814C0FFF7EBFF06B0B0
:1040200080BD80B582B00020019069469E20FFF7D8
:10403000E1FFC0B202B080BD80B582B00020019027
:104040006946A020FFF7D6FFC0B202B080BD80B5A0
:1040500082B00090002001906420C0F200106946F8
:10406000FFF7C8FF02B080BD80B582B0002001908C
:1040700069466A20FFF7BEFF02B080BD80B584B0FC
:1040800001AB07C37420C0F2003001A9FFF7B2FFF3
:1040900004B080BD82B00090002001909A20C0F250
:1040A00000106946FFF7A6FFFFDE80B582B00190E1
:1040B0008420C0F2001001A9FFF79CFF02B080BD70
:1040C00080B582B0002001908520C0F200106946C2
:1040D000FFF790FF02B080BD80B582B00020019054
:1040E0008620C0F200106946FFF784FF02B080BD51
:1040F00080B584B08DE80F008820C0F2004069468A
:10410000FFF778FF04B080BD80B584B08DE80F0064
:104110008920C0F200306946FFF76CFF04B080BD13
:1041200080B582B00020019069468720FFF762FFCA
:1041300002B080BD80B582B000900020019040F2B6
:104140000B10C0F200106946FFF754FF02B080BDAB
:1041500080B582B00090002001909C20C0F2001039
:104160006946FFF747FFC0B202B080BD2DE9F04DB0
:10417000DDF820C0044679B1BAB15BB3B1FA81F57C
:10418000B3FA83F6751B202D4AD3BCF1000F18BF7C
:10419000CCE90041002466E0CBB30021BCF1000F64
:1041A00018BFCCE900410024A6E0002B3ED0002837
:1041B0004FD05D1E2B4258D1BCF1000F1CBF05EA49
:1041C0000100CCE9004093FAA3F0B0FA80F021FAA4
:1041D00000F448E0551E2A4229D1BCF1000F1EBF51
:1041E00000230540CCE90053012A00F0858092FAB3
:1041F000A2F24C00B2FA82F202F01F03D140D84082
:104200001F23934304FA03F343EA000474E0B0FB72
:10421000F2F4BCF1000F26D004FB1200002120E0D4
:1042200005F1010EBEF1200F0BD028E064E0B1FAD9
:1042300081F4B2FA82F52C1B04F1210EBEF1200F9D
:104240005DD14FF0200E4FF0000A4FF0000B0E46EC
:1042500021E0B1FBF3F4BCF1000F04D0002004FB1B
:104260001311CCE90001002146E0B1FA81F5B3FA5F
:1042700083F6751B1F2DBFF488AF05F1010E20FAE0
:104280000EF4C5F11F0501FA05F621FA0EFBA84050
:104290004FF0000A26434FF00008BEF1000F1CD07B
:1042A0004FEA4B01AEF1010E41EAD671760046EAC3
:1042B000D075AE1A61EB030BCF43EC43A41857EB58
:1042C00003045CBF8B462E464000E10F48EA4A04D7
:1042D00040EADA70A2468846DFE74FEADA71BCF1BD
:1042E000000F18BFCCE9006B41EA40014FEA4A00D9
:1042F00020F0010040EA08042046BDE8F08DBEF140
:104300001F0F04D820FA0EF4CEF12005BBE7CEF142
:104310004007AEF120044FF0000B20FA04F501FA3B
:1043200007F600FA07FA46EA050821FA04F64046BD
:10433000B1E7000000F01CB800F028B80B461146A9
:104340001A4600F03DB800BF0A46002100F038B818
:1043500040B584B002AE0096FFF708FF029A039BB7
:1043600004B040BD00F000B80A46002100F028B8B3
:104370000A44914200F1FF3300D1704710B511F8A3
:10438000014B914203F8014FF9D110BD884210B59D
:1043900001EB020402D98442234607D8431EA142FE
:1043A00008D011F8012B03F8012FF8E70146024469
:1043B0008A4200D110BD13F8014D02F8014DF7E714
:1043C00003460244934200D1704703F8011BF9E70A
:1043D000EC46A0E8F05F4FF000007047B0E8F05FF7
:1043E000E546080008BF0120704700BF034613F8E8
:1043F000012B002AFBD1181A0138704730B504464A
:10440000257823460134002DFAD1541E12B930BD4F
:104410003CB1013C11F8012B03F8012B002AF7D124
:10442000F5E71C70F3E707807F83FF1FFE7FFBFF2C
:10443000FC81F207FBFDFFE7FF8FFC1FE01E000E73
:10444000000E0000002644DEC003001E00FC00C079
:104450000301CCE73398C6631980660198067FF99B
:10446000FFE00E000E0000004944DEC03C428181A6
:10447000818199BDBD99423C0C00080000006C444C
:10448000DEC03C7EE7C3C3E7FFFFFFFF7E3C0C00BE
:10449000080000008244DEC0000000003000C003BD
:1044A000000C03330EDC1FE03F007800C00000006A
:1044B000000E000E0000009844DEC0000000003036
:1044C00002D01FE03F03CF0F3C0FC07F80B400C07D
:1044D000000000000E000E000000BB44DEC0000122
:1044E0008067038E1C1CE03F007801E00FC07383DF
:1044F000871C0E601800000E000E000000DE44DE77
:10450000C0842124800700040000000145DEC08231
:1045100088A0800400070000000F45DEC010511481
:10452000100400070000001D45DEC01248421007BD
:1045300000040000002B45DEC00E000E00020F003C
:104540000032C3C3C3C3C3C3C3B3A3A3A3B2F05056
:104550000E000E0000013945DEC00000006007803B
:104560007E07F87FE7049C121FF81FE01F801E00E3
:104570001800000E000E0000005A45DEC01BE1EFDF
:10458000E79E3E21F80F807803E00FE01FE03F88B0
:104590005E787BF86F800E000E0000007D45DEC067
:1045A0003D3E20617064755F646973706174636817
:1045B0006572206661696C7572650A002573202832
:1045C00025642F256429003D3E20696F5F72656375
:1045D000765F636F6D6D616E64206661696C757284
:1045E000650A00417070206572726F7200457869CB
:1045F0007420617070002000456E61626C6564001B
:104600003C3D2053573D25303458207C2052446196
:1046100074613D252E2A480A003C3D204652414700
:10462000202825752F2575292052446174613D2568
:104630002E2A480A003D3E2050433A20307825304B
:104640003858200A003D3E20434C413D2530325829
:10465000207C20494E533D25303258207C2050315B
:104660003D25303258207C2050323D2530325820B4
:104670007C204C633D25303258207C2043446174BB
:10468000613D252E2A480A004C45444745525F416A
:104690005353455254204641494C45440A00257322
:1046A0003A3A25640A003D3E202F215C20424144D5
:1046B000204C454E4754483A20252E2A480A0044AB
:1046C000697361626C656400417070207365747415
:1046D000696E677300653D3078253034580A204C88
:1046E000523D3078253038580A007374616E646129
:1046F0006C6F6E655F6170705F6D61696E0A0065F9
:104700007863657074696F6E5B3078253034585DFE
:104710003A204C523D3078253038580A000A004281
:1047200061636B003C3D2053573D25303458207C5D
:104730002052446174613D0A004C523D307825306E
:1047400038580A2050433D3078253038580A004107
:10475000707020696E666F0025733A3A2564200AEE
:104760000061707020697320726561647900517511
:10477000697420617070003D3E204C523A203078C0
:1047800025303858200A002F6170702F7372632F04
:10479000617064752F646973706174636865722EEB
:1047A0006300426F696C6572706C6174650025000E
:1047B0004E554C4C20636D6400000000000000006A
:1047C00000000000000000000000000000000000E9
:1047D000000000000000000030313233343536373D
:1047E0003839616263646566303132333435363767
:1047F00038394142434445460000000000000000B3
:10480000010B426F696C6572706C617465020532F0
:104810002E332E3103210E000E000019000004007B
:1048200010006181DE07F07F87FC1FF01FE01FC0D2
:1048300077818604001000040A01028000002C80A9
:0348400000000174
:04000005C0DE000158
:00000001FF
